{
  "_format": "hh-sol-artifact-1",
  "contractName": "DataStoreMul",
  "sourceName": "contracts/Datas.sol",
  "abi": [
    {
      "anonymous": false,
      "inputs": [
        {
          "indexed": true,
          "internalType": "string",
          "name": "examno",
          "type": "string"
        },
        {
          "indexed": false,
          "internalType": "string[]",
          "name": "data",
          "type": "string[]"
        }
      ],
      "name": "Datas",
      "type": "event"
    },
    {
      "inputs": [
        {
          "internalType": "string",
          "name": "",
          "type": "string"
        }
      ],
      "name": "eventcount",
      "outputs": [
        {
          "internalType": "uint256",
          "name": "start",
          "type": "uint256"
        },
        {
          "internalType": "uint256",
          "name": "end",
          "type": "uint256"
        },
        {
          "internalType": "bool",
          "name": "firstentry",
          "type": "bool"
        }
      ],
      "stateMutability": "view",
      "type": "function"
    },
    {
      "inputs": [],
      "name": "getAllData",
      "outputs": [
        {
          "internalType": "string[][]",
          "name": "",
          "type": "string[][]"
        }
      ],
      "stateMutability": "view",
      "type": "function"
    },
    {
      "inputs": [
        {
          "internalType": "uint256",
          "name": "index",
          "type": "uint256"
        }
      ],
      "name": "getDataArray",
      "outputs": [
        {
          "internalType": "string[]",
          "name": "",
          "type": "string[]"
        }
      ],
      "stateMutability": "view",
      "type": "function"
    },
    {
      "inputs": [
        {
          "internalType": "string",
          "name": "examno",
          "type": "string"
        },
        {
          "internalType": "uint256",
          "name": "start",
          "type": "uint256"
        },
        {
          "internalType": "uint256",
          "name": "number",
          "type": "uint256"
        }
      ],
      "name": "getDataMap",
      "outputs": [
        {
          "internalType": "string[][]",
          "name": "",
          "type": "string[][]"
        }
      ],
      "stateMutability": "view",
      "type": "function"
    },
    {
      "inputs": [
        {
          "internalType": "string[][]",
          "name": "newStrings",
          "type": "string[][]"
        }
      ],
      "name": "storeData",
      "outputs": [],
      "stateMutability": "nonpayable",
      "type": "function"
    },
    {
      "inputs": [
        {
          "internalType": "string[][]",
          "name": "newStrings",
          "type": "string[][]"
        }
      ],
      "name": "storeDataMap",
      "outputs": [],
      "stateMutability": "nonpayable",
      "type": "function"
    },
    {
      "inputs": [
        {
          "internalType": "string[][]",
          "name": "newStrings",
          "type": "string[][]"
        }
      ],
      "name": "storeDatas",
      "outputs": [],
      "stateMutability": "nonpayable",
      "type": "function"
    }
  ],
  "bytecode": "0x6080604052348015600f57600080fd5b506117ac8061001f6000396000f3fe608060405234801561001057600080fd5b506004361061007d5760003560e01c806355e0ade21161005b57806355e0ade2146100d8578063a1b8127414610108578063a1f7cb3614610138578063c704fc5f146101545761007d565b80632d10fa28146100825780633808ee05146100a05780634f7de7f8146100bc575b600080fd5b61008a610186565b6040516100979190610d97565b60405180910390f35b6100ba60048036038101906100b591906110c9565b6102a6565b005b6100d660048036038101906100d191906110c9565b610594565b005b6100f260048036038101906100ed9190611148565b6105ae565b6040516100ff91906111fb565b60405180910390f35b610122600480360381019061011d919061121d565b6106a5565b60405161012f9190610d97565b60405180910390f35b610152600480360381019061014d91906110c9565b6108a8565b005b61016e6004803603810190610169919061128c565b6109b7565b60405161017d939291906112ff565b60405180910390f35b60606000805480602002602001604051908101604052809291908181526020016000905b8282101561029d57838290600052602060002001805480602002602001604051908101604052809291908181526020016000905b8282101561028a5783829060005260206000200180546101fd90611365565b80601f016020809104026020016040519081016040528092919081815260200182805461022990611365565b80156102765780601f1061024b57610100808354040283529160200191610276565b820191906000526020600020905b81548152906001019060200180831161025957829003601f168201915b5050505050815260200190600101906101de565b50505050815260200190600101906101aa565b50505050905090565b60005b81518110156105905760018282815181106102c7576102c6611396565b5b60200260200101516003815181106102e2576102e1611396565b5b60200260200101516040516102f79190611401565b908152602001604051809103902082828151811061031857610317611396565b5b6020026020010151908060018154018082558091505060019003906000526020600020016000909190919091509080519060200190610358929190610a04565b5081818151811061036c5761036b611396565b5b602002602001015160038151811061038757610386611396565b5b602002602001015160405161039c9190611401565b60405180910390207f8e54e5de3e8d9415f2f81dbad29e27c5d37a5cf9cc27c4e3c9232097728a73e08383815181106103d8576103d7611396565b5b60200260200101516040516103ed91906111fb565b60405180910390a243600383838151811061040b5761040a611396565b5b602002602001015160038151811061042657610425611396565b5b602002602001015160405161043b9190611401565b908152602001604051809103902060010181905550600382828151811061046557610464611396565b5b60200260200101516003815181106104805761047f611396565b5b60200260200101516040516104959190611401565b908152602001604051809103902060020160009054906101000a900460ff16610583574360038383815181106104ce576104cd611396565b5b60200260200101516003815181106104e9576104e8611396565b5b60200260200101516040516104fe9190611401565b9081526020016040518091039020600001819055506001600383838151811061052a57610529611396565b5b602002602001015160038151811061054557610544611396565b5b602002602001015160405161055a9190611401565b908152602001604051809103902060020160006101000a81548160ff0219169083151502179055505b80806001019150506102a9565b5050565b80600090805190602001906105aa929190610a5d565b5050565b6060600082815481106105c4576105c3611396565b5b90600052602060002001805480602002602001604051908101604052809291908181526020016000905b8282101561069a57838290600052602060002001805461060d90611365565b80601f016020809104026020016040519081016040528092919081815260200182805461063990611365565b80156106865780601f1061065b57610100808354040283529160200191610686565b820191906000526020600020905b81548152906001019060200180831161066957829003601f168201915b5050505050815260200190600101906105ee565b505050509050919050565b606060006001856040516106b99190611401565b90815260200160405180910390209050808054905083856106da9190611447565b111561071b576040517f08c379a0000000000000000000000000000000000000000000000000000000008152600401610712906114d8565b60405180910390fd5b60008367ffffffffffffffff81111561073757610736610dd2565b5b60405190808252806020026020018201604052801561076a57816020015b60608152602001906001900390816107555790505b50905060005b8481101561089b578281876107859190611447565b8154811061079657610795611396565b5b90600052602060002001805480602002602001604051908101604052809291908181526020016000905b8282101561086c5783829060005260206000200180546107df90611365565b80601f016020809104026020016040519081016040528092919081815260200182805461080b90611365565b80156108585780601f1061082d57610100808354040283529160200191610858565b820191906000526020600020905b81548152906001019060200180831161083b57829003601f168201915b5050505050815260200190600101906107c0565b5050505082828151811061088357610882611396565b5b60200260200101819052508080600101915050610770565b5080925050509392505050565b60005b81518110156109b35760008282815181106108c9576108c8611396565b5b6020026020010151908060018154018082558091505060019003906000526020600020016000909190919091509080519060200190610909929190610a04565b5081818151811061091d5761091c611396565b5b602002602001015160038151811061093857610937611396565b5b602002602001015160405161094d9190611401565b60405180910390207f8e54e5de3e8d9415f2f81dbad29e27c5d37a5cf9cc27c4e3c9232097728a73e083838151811061098957610988611396565b5b602002602001015160405161099e91906111fb565b60405180910390a280806001019150506108ab565b5050565b6003818051602081018201805184825260208301602085012081835280955050505050506000915090508060000154908060010154908060020160009054906101000a900460ff16905083565b828054828255906000526020600020908101928215610a4c579160200282015b82811115610a4b578251829081610a3b91906116a4565b5091602001919060010190610a24565b5b509050610a599190610abd565b5090565b828054828255906000526020600020908101928215610aac579160200282015b82811115610aab578251829080519060200190610a9b929190610a04565b5091602001919060010190610a7d565b5b509050610ab99190610ae1565b5090565b5b80821115610add5760008181610ad49190610b05565b50600101610abe565b5090565b5b80821115610b015760008181610af89190610b45565b50600101610ae2565b5090565b508054610b1190611365565b6000825580601f10610b235750610b42565b601f016020900490600052602060002090810190610b419190610b66565b5b50565b5080546000825590600052602060002090810190610b639190610abd565b50565b5b80821115610b7f576000816000905550600101610b67565b5090565b600081519050919050565b600082825260208201905092915050565b6000819050602082019050919050565b600081519050919050565b600082825260208201905092915050565b6000819050602082019050919050565b600081519050919050565b600082825260208201905092915050565b60005b83811015610c15578082015181840152602081019050610bfa565b60008484015250505050565b6000601f19601f8301169050919050565b6000610c3d82610bdb565b610c478185610be6565b9350610c57818560208601610bf7565b610c6081610c21565b840191505092915050565b6000610c778383610c32565b905092915050565b6000602082019050919050565b6000610c9782610baf565b610ca18185610bba565b935083602082028501610cb385610bcb565b8060005b85811015610cef5784840389528151610cd08582610c6b565b9450610cdb83610c7f565b925060208a01995050600181019050610cb7565b50829750879550505050505092915050565b6000610d0d8383610c8c565b905092915050565b6000602082019050919050565b6000610d2d82610b83565b610d378185610b8e565b935083602082028501610d4985610b9f565b8060005b85811015610d855784840389528151610d668582610d01565b9450610d7183610d15565b925060208a01995050600181019050610d4d565b50829750879550505050505092915050565b60006020820190508181036000830152610db18184610d22565b905092915050565b6000604051905090565b600080fd5b600080fd5b600080fd5b7f4e487b7100000000000000000000000000000000000000000000000000000000600052604160045260246000fd5b610e0a82610c21565b810181811067ffffffffffffffff82111715610e2957610e28610dd2565b5b80604052505050565b6000610e3c610db9565b9050610e488282610e01565b919050565b600067ffffffffffffffff821115610e6857610e67610dd2565b5b602082029050602081019050919050565b600080fd5b600067ffffffffffffffff821115610e9957610e98610dd2565b5b602082029050602081019050919050565b600080fd5b600067ffffffffffffffff821115610eca57610ec9610dd2565b5b610ed382610c21565b9050602081019050919050565b82818337600083830152505050565b6000610f02610efd84610eaf565b610e32565b905082815260208101848484011115610f1e57610f1d610eaa565b5b610f29848285610ee0565b509392505050565b600082601f830112610f4657610f45610dcd565b5b8135610f56848260208601610eef565b91505092915050565b6000610f72610f6d84610e7e565b610e32565b90508083825260208201905060208402830185811115610f9557610f94610e79565b5b835b81811015610fdc57803567ffffffffffffffff811115610fba57610fb9610dcd565b5b808601610fc78982610f31565b85526020850194505050602081019050610f97565b5050509392505050565b600082601f830112610ffb57610ffa610dcd565b5b813561100b848260208601610f5f565b91505092915050565b600061102761102284610e4d565b610e32565b9050808382526020820190506020840283018581111561104a57611049610e79565b5b835b8181101561109157803567ffffffffffffffff81111561106f5761106e610dcd565b5b80860161107c8982610fe6565b8552602085019450505060208101905061104c565b5050509392505050565b600082601f8301126110b0576110af610dcd565b5b81356110c0848260208601611014565b91505092915050565b6000602082840312156110df576110de610dc3565b5b600082013567ffffffffffffffff8111156110fd576110fc610dc8565b5b6111098482850161109b565b91505092915050565b6000819050919050565b61112581611112565b811461113057600080fd5b50565b6000813590506111428161111c565b92915050565b60006020828403121561115e5761115d610dc3565b5b600061116c84828501611133565b91505092915050565b600082825260208201905092915050565b600061119182610baf565b61119b8185611175565b9350836020820285016111ad85610bcb565b8060005b858110156111e957848403895281516111ca8582610c6b565b94506111d583610c7f565b925060208a019950506001810190506111b1565b50829750879550505050505092915050565b600060208201905081810360008301526112158184611186565b905092915050565b60008060006060848603121561123657611235610dc3565b5b600084013567ffffffffffffffff81111561125457611253610dc8565b5b61126086828701610f31565b935050602061127186828701611133565b925050604061128286828701611133565b9150509250925092565b6000602082840312156112a2576112a1610dc3565b5b600082013567ffffffffffffffff8111156112c0576112bf610dc8565b5b6112cc84828501610f31565b91505092915050565b6112de81611112565b82525050565b60008115159050919050565b6112f9816112e4565b82525050565b600060608201905061131460008301866112d5565b61132160208301856112d5565b61132e60408301846112f0565b949350505050565b7f4e487b7100000000000000000000000000000000000000000000000000000000600052602260045260246000fd5b6000600282049050600182168061137d57607f821691505b6020821081036113905761138f611336565b5b50919050565b7f4e487b7100000000000000000000000000000000000000000000000000000000600052603260045260246000fd5b600081905092915050565b60006113db82610bdb565b6113e581856113c5565b93506113f5818560208601610bf7565b80840191505092915050565b600061140d82846113d0565b915081905092915050565b7f4e487b7100000000000000000000000000000000000000000000000000000000600052601160045260246000fd5b600061145282611112565b915061145d83611112565b925082820190508082111561147557611474611418565b5b92915050565b600082825260208201905092915050565b7f4f7574206f6620626f756e647300000000000000000000000000000000000000600082015250565b60006114c2600d8361147b565b91506114cd8261148c565b602082019050919050565b600060208201905081810360008301526114f1816114b5565b9050919050565b60008190508160005260206000209050919050565b60006020601f8301049050919050565b600082821b905092915050565b60006008830261155a7fffffffffffffffffffffffffffffffffffffffffffffffffffffffffffffffff8261151d565b611564868361151d565b95508019841693508086168417925050509392505050565b6000819050919050565b60006115a161159c61159784611112565b61157c565b611112565b9050919050565b6000819050919050565b6115bb83611586565b6115cf6115c7826115a8565b84845461152a565b825550505050565b600090565b6115e46115d7565b6115ef8184846115b2565b505050565b5b81811015611613576116086000826115dc565b6001810190506115f5565b5050565b601f82111561165857611629816114f8565b6116328461150d565b81016020851015611641578190505b61165561164d8561150d565b8301826115f4565b50505b505050565b600082821c905092915050565b600061167b6000198460080261165d565b1980831691505092915050565b6000611694838361166a565b9150826002028217905092915050565b6116ad82610bdb565b67ffffffffffffffff8111156116c6576116c5610dd2565b5b6116d08254611365565b6116db828285611617565b600060209050601f83116001811461170e57600084156116fc578287015190505b6117068582611688565b86555061176e565b601f19841661171c866114f8565b60005b828110156117445784890151825560018201915060208501945060208101905061171f565b86831015611761578489015161175d601f89168261166a565b8355505b6001600288020188555050505b50505050505056fea2646970667358221220f94e0328d78e099eaf9347cc35e1d7231135a321eec7ebc2e2d2257b6ddf8e5664736f6c634300081b0033",
  "linkReferences": {},
  "deployedLinkReferences": {}
}