{
  "_format": "hh-sol-artifact-1",
  "contractName": "DataStoreMul",
  "sourceName": "contracts/Datas.sol",
  "abi": [
    {
      "anonymous": false,
      "inputs": [
        {
          "indexed": true,
          "internalType": "string",
          "name": "examno",
          "type": "string"
        },
        {
          "indexed": false,
          "internalType": "string[]",
          "name": "data",
          "type": "string[]"
        }
      ],
      "name": "Datas",
      "type": "event"
    },
    {
      "inputs": [],
      "name": "getAllData",
      "outputs": [
        {
          "internalType": "string[][]",
          "name": "",
          "type": "string[][]"
        }
      ],
      "stateMutability": "view",
      "type": "function"
    },
    {
      "inputs": [
        {
          "internalType": "uint256",
          "name": "index",
          "type": "uint256"
        }
      ],
      "name": "getDataArray",
      "outputs": [
        {
          "internalType": "string[]",
          "name": "",
          "type": "string[]"
        }
      ],
      "stateMutability": "view",
      "type": "function"
    },
    {
      "inputs": [
        {
          "internalType": "string",
          "name": "examno",
          "type": "string"
        },
        {
          "internalType": "uint256",
          "name": "start",
          "type": "uint256"
        },
        {
          "internalType": "uint256",
          "name": "number",
          "type": "uint256"
        }
      ],
      "name": "getDataMap",
      "outputs": [
        {
          "internalType": "string[][]",
          "name": "",
          "type": "string[][]"
        }
      ],
      "stateMutability": "view",
      "type": "function"
    },
    {
      "inputs": [
        {
          "internalType": "string[][]",
          "name": "newStrings",
          "type": "string[][]"
        }
      ],
      "name": "storeData",
      "outputs": [],
      "stateMutability": "nonpayable",
      "type": "function"
    },
    {
      "inputs": [
        {
          "internalType": "string[][]",
          "name": "newStrings",
          "type": "string[][]"
        }
      ],
      "name": "storeDataMap",
      "outputs": [],
      "stateMutability": "nonpayable",
      "type": "function"
    },
    {
      "inputs": [
        {
          "internalType": "string[][]",
          "name": "newStrings",
          "type": "string[][]"
        }
      ],
      "name": "storeDatas",
      "outputs": [],
      "stateMutability": "nonpayable",
      "type": "function"
    }
  ],
  "bytecode": "0x6080604052348015600f57600080fd5b506117078061001f6000396000f3fe608060405234801561001057600080fd5b50600436106100625760003560e01c80632d10fa28146100675780633808ee05146100855780634f7de7f8146100a157806355e0ade2146100bd578063a1b81274146100ed578063a1f7cb361461011d575b600080fd5b61006f610139565b60405161007c9190610d9c565b60405180910390f35b61009f600480360381019061009a91906110ce565b610259565b005b6100bb60048036038101906100b691906110ce565b6105e6565b005b6100d760048036038101906100d2919061114d565b610600565b6040516100e49190611200565b60405180910390f35b61010760048036038101906101029190611222565b6106f7565b6040516101149190610d9c565b60405180910390f35b610137600480360381019061013291906110ce565b6108fa565b005b60606000805480602002602001604051908101604052809291908181526020016000905b8282101561025057838290600052602060002001805480602002602001604051908101604052809291908181526020016000905b8282101561023d5783829060005260206000200180546101b0906112c0565b80601f01602080910402602001604051908101604052809291908181526020018280546101dc906112c0565b80156102295780601f106101fe57610100808354040283529160200191610229565b820191906000526020600020905b81548152906001019060200180831161020c57829003601f168201915b505050505081526020019060010190610191565b505050508152602001906001019061015d565b50505050905090565b60005b81518110156105e257600182828151811061027a576102796112f1565b5b6020026020010151600381518110610295576102946112f1565b5b60200260200101516040516102aa919061135c565b90815260200160405180910390208282815181106102cb576102ca6112f1565b5b602002602001015190806001815401808255809150506001900390600052602060002001600090919091909150908051906020019061030b929190610a09565b5081818151811061031f5761031e6112f1565b5b602002602001015160038151811061033a576103396112f1565b5b602002602001015160405161034f919061135c565b60405180910390207f8e54e5de3e8d9415f2f81dbad29e27c5d37a5cf9cc27c4e3c9232097728a73e083838151811061038b5761038a6112f1565b5b60200260200101516040516103a09190611200565b60405180910390a2600060038383815181106103bf576103be6112f1565b5b60200260200101516003815181106103da576103d96112f1565b5b60200260200101516040516103ef919061135c565b90815260200160405180910390206000600281106104105761040f6112f1565b5b0154148015610486575060006003838381518110610431576104306112f1565b5b602002602001015160038151811061044c5761044b6112f1565b5b6020026020010151604051610461919061135c565b9081526020016040518091039020600160028110610482576104816112f1565b5b0154145b15610568574360038383815181106104a1576104a06112f1565b5b60200260200101516003815181106104bc576104bb6112f1565b5b60200260200101516040516104d1919061135c565b90815260200160405180910390206000600281106104f2576104f16112f1565b5b018190555043600383838151811061050d5761050c6112f1565b5b6020026020010151600381518110610528576105276112f1565b5b602002602001015160405161053d919061135c565b908152602001604051809103902060016002811061055e5761055d6112f1565b5b01819055506105d5565b43600383838151811061057e5761057d6112f1565b5b6020026020010151600381518110610599576105986112f1565b5b60200260200101516040516105ae919061135c565b90815260200160405180910390206001600281106105cf576105ce6112f1565b5b01819055505b808060010191505061025c565b5050565b80600090805190602001906105fc929190610a62565b5050565b606060008281548110610616576106156112f1565b5b90600052602060002001805480602002602001604051908101604052809291908181526020016000905b828210156106ec57838290600052602060002001805461065f906112c0565b80601f016020809104026020016040519081016040528092919081815260200182805461068b906112c0565b80156106d85780601f106106ad576101008083540402835291602001916106d8565b820191906000526020600020905b8154815290600101906020018083116106bb57829003601f168201915b505050505081526020019060010190610640565b505050509050919050565b6060600060018560405161070b919061135c565b908152602001604051809103902090508080549050838561072c91906113a2565b111561076d576040517f08c379a000000000000000000000000000000000000000000000000000000000815260040161076490611433565b60405180910390fd5b60008367ffffffffffffffff81111561078957610788610dd7565b5b6040519080825280602002602001820160405280156107bc57816020015b60608152602001906001900390816107a75790505b50905060005b848110156108ed578281876107d791906113a2565b815481106107e8576107e76112f1565b5b90600052602060002001805480602002602001604051908101604052809291908181526020016000905b828210156108be578382906000526020600020018054610831906112c0565b80601f016020809104026020016040519081016040528092919081815260200182805461085d906112c0565b80156108aa5780601f1061087f576101008083540402835291602001916108aa565b820191906000526020600020905b81548152906001019060200180831161088d57829003601f168201915b505050505081526020019060010190610812565b505050508282815181106108d5576108d46112f1565b5b602002602001018190525080806001019150506107c2565b5080925050509392505050565b60005b8151811015610a0557600082828151811061091b5761091a6112f1565b5b602002602001015190806001815401808255809150506001900390600052602060002001600090919091909150908051906020019061095b929190610a09565b5081818151811061096f5761096e6112f1565b5b602002602001015160038151811061098a576109896112f1565b5b602002602001015160405161099f919061135c565b60405180910390207f8e54e5de3e8d9415f2f81dbad29e27c5d37a5cf9cc27c4e3c9232097728a73e08383815181106109db576109da6112f1565b5b60200260200101516040516109f09190611200565b60405180910390a280806001019150506108fd565b5050565b828054828255906000526020600020908101928215610a51579160200282015b82811115610a50578251829081610a4091906115ff565b5091602001919060010190610a29565b5b509050610a5e9190610ac2565b5090565b828054828255906000526020600020908101928215610ab1579160200282015b82811115610ab0578251829080519060200190610aa0929190610a09565b5091602001919060010190610a82565b5b509050610abe9190610ae6565b5090565b5b80821115610ae25760008181610ad99190610b0a565b50600101610ac3565b5090565b5b80821115610b065760008181610afd9190610b4a565b50600101610ae7565b5090565b508054610b16906112c0565b6000825580601f10610b285750610b47565b601f016020900490600052602060002090810190610b469190610b6b565b5b50565b5080546000825590600052602060002090810190610b689190610ac2565b50565b5b80821115610b84576000816000905550600101610b6c565b5090565b600081519050919050565b600082825260208201905092915050565b6000819050602082019050919050565b600081519050919050565b600082825260208201905092915050565b6000819050602082019050919050565b600081519050919050565b600082825260208201905092915050565b60005b83811015610c1a578082015181840152602081019050610bff565b60008484015250505050565b6000601f19601f8301169050919050565b6000610c4282610be0565b610c4c8185610beb565b9350610c5c818560208601610bfc565b610c6581610c26565b840191505092915050565b6000610c7c8383610c37565b905092915050565b6000602082019050919050565b6000610c9c82610bb4565b610ca68185610bbf565b935083602082028501610cb885610bd0565b8060005b85811015610cf45784840389528151610cd58582610c70565b9450610ce083610c84565b925060208a01995050600181019050610cbc565b50829750879550505050505092915050565b6000610d128383610c91565b905092915050565b6000602082019050919050565b6000610d3282610b88565b610d3c8185610b93565b935083602082028501610d4e85610ba4565b8060005b85811015610d8a5784840389528151610d6b8582610d06565b9450610d7683610d1a565b925060208a01995050600181019050610d52565b50829750879550505050505092915050565b60006020820190508181036000830152610db68184610d27565b905092915050565b6000604051905090565b600080fd5b600080fd5b600080fd5b7f4e487b7100000000000000000000000000000000000000000000000000000000600052604160045260246000fd5b610e0f82610c26565b810181811067ffffffffffffffff82111715610e2e57610e2d610dd7565b5b80604052505050565b6000610e41610dbe565b9050610e4d8282610e06565b919050565b600067ffffffffffffffff821115610e6d57610e6c610dd7565b5b602082029050602081019050919050565b600080fd5b600067ffffffffffffffff821115610e9e57610e9d610dd7565b5b602082029050602081019050919050565b600080fd5b600067ffffffffffffffff821115610ecf57610ece610dd7565b5b610ed882610c26565b9050602081019050919050565b82818337600083830152505050565b6000610f07610f0284610eb4565b610e37565b905082815260208101848484011115610f2357610f22610eaf565b5b610f2e848285610ee5565b509392505050565b600082601f830112610f4b57610f4a610dd2565b5b8135610f5b848260208601610ef4565b91505092915050565b6000610f77610f7284610e83565b610e37565b90508083825260208201905060208402830185811115610f9a57610f99610e7e565b5b835b81811015610fe157803567ffffffffffffffff811115610fbf57610fbe610dd2565b5b808601610fcc8982610f36565b85526020850194505050602081019050610f9c565b5050509392505050565b600082601f83011261100057610fff610dd2565b5b8135611010848260208601610f64565b91505092915050565b600061102c61102784610e52565b610e37565b9050808382526020820190506020840283018581111561104f5761104e610e7e565b5b835b8181101561109657803567ffffffffffffffff81111561107457611073610dd2565b5b8086016110818982610feb565b85526020850194505050602081019050611051565b5050509392505050565b600082601f8301126110b5576110b4610dd2565b5b81356110c5848260208601611019565b91505092915050565b6000602082840312156110e4576110e3610dc8565b5b600082013567ffffffffffffffff81111561110257611101610dcd565b5b61110e848285016110a0565b91505092915050565b6000819050919050565b61112a81611117565b811461113557600080fd5b50565b60008135905061114781611121565b92915050565b60006020828403121561116357611162610dc8565b5b600061117184828501611138565b91505092915050565b600082825260208201905092915050565b600061119682610bb4565b6111a0818561117a565b9350836020820285016111b285610bd0565b8060005b858110156111ee57848403895281516111cf8582610c70565b94506111da83610c84565b925060208a019950506001810190506111b6565b50829750879550505050505092915050565b6000602082019050818103600083015261121a818461118b565b905092915050565b60008060006060848603121561123b5761123a610dc8565b5b600084013567ffffffffffffffff81111561125957611258610dcd565b5b61126586828701610f36565b935050602061127686828701611138565b925050604061128786828701611138565b9150509250925092565b7f4e487b7100000000000000000000000000000000000000000000000000000000600052602260045260246000fd5b600060028204905060018216806112d857607f821691505b6020821081036112eb576112ea611291565b5b50919050565b7f4e487b7100000000000000000000000000000000000000000000000000000000600052603260045260246000fd5b600081905092915050565b600061133682610be0565b6113408185611320565b9350611350818560208601610bfc565b80840191505092915050565b6000611368828461132b565b915081905092915050565b7f4e487b7100000000000000000000000000000000000000000000000000000000600052601160045260246000fd5b60006113ad82611117565b91506113b883611117565b92508282019050808211156113d0576113cf611373565b5b92915050565b600082825260208201905092915050565b7f4f7574206f6620626f756e647300000000000000000000000000000000000000600082015250565b600061141d600d836113d6565b9150611428826113e7565b602082019050919050565b6000602082019050818103600083015261144c81611410565b9050919050565b60008190508160005260206000209050919050565b60006020601f8301049050919050565b600082821b905092915050565b6000600883026114b57fffffffffffffffffffffffffffffffffffffffffffffffffffffffffffffffff82611478565b6114bf8683611478565b95508019841693508086168417925050509392505050565b6000819050919050565b60006114fc6114f76114f284611117565b6114d7565b611117565b9050919050565b6000819050919050565b611516836114e1565b61152a61152282611503565b848454611485565b825550505050565b600090565b61153f611532565b61154a81848461150d565b505050565b5b8181101561156e57611563600082611537565b600181019050611550565b5050565b601f8211156115b35761158481611453565b61158d84611468565b8101602085101561159c578190505b6115b06115a885611468565b83018261154f565b50505b505050565b600082821c905092915050565b60006115d6600019846008026115b8565b1980831691505092915050565b60006115ef83836115c5565b9150826002028217905092915050565b61160882610be0565b67ffffffffffffffff81111561162157611620610dd7565b5b61162b82546112c0565b611636828285611572565b600060209050601f8311600181146116695760008415611657578287015190505b61166185826115e3565b8655506116c9565b601f19841661167786611453565b60005b8281101561169f5784890151825560018201915060208501945060208101905061167a565b868310156116bc57848901516116b8601f8916826115c5565b8355505b6001600288020188555050505b50505050505056fea264697066735822122099d542b5d1ff2dc2c9a8cd5dea02c5b4e7bad84534561c6261c724b1a476a89a64736f6c634300081b0033",
  "linkReferences": {},
  "deployedLinkReferences": {}
}