{
  "_format": "hh-sol-artifact-1",
  "contractName": "DatalStoreMu",
  "sourceName": "contracts/Data.sol",
  "abi": [
    {
      "anonymous": false,
      "inputs": [
        {
          "indexed": false,
          "internalType": "string",
          "name": "examno",
          "type": "string"
        },
        {
          "indexed": false,
          "internalType": "string",
          "name": "data",
          "type": "string"
        }
      ],
      "name": "Datas",
      "type": "event"
    },
    {
      "inputs": [
        {
          "internalType": "string",
          "name": "",
          "type": "string"
        }
      ],
      "name": "eventcount",
      "outputs": [
        {
          "internalType": "uint256",
          "name": "start",
          "type": "uint256"
        },
        {
          "internalType": "uint256",
          "name": "end",
          "type": "uint256"
        },
        {
          "internalType": "bool",
          "name": "firstentry",
          "type": "bool"
        }
      ],
      "stateMutability": "view",
      "type": "function"
    },
    {
      "inputs": [
        {
          "internalType": "string[][]",
          "name": "newStrings",
          "type": "string[][]"
        }
      ],
      "name": "storeData",
      "outputs": [],
      "stateMutability": "nonpayable",
      "type": "function"
    }
  ],
  "bytecode": "0x6080604052348015600f57600080fd5b506108af8061001f6000396000f3fe608060405234801561001057600080fd5b50600436106100365760003560e01c80634f7de7f81461003b578063c704fc5f14610057575b600080fd5b61005560048036038101906100509190610644565b610089565b005b610071600480360381019061006c919061068d565b6102d6565b6040516100809392919061070a565b60405180910390f35b60005b81518110156102d2577fb4da3865260746cc8a6628c5bfcab04cb75be3f5e441d4650868b5dfe9c8c04b8282815181106100c9576100c8610741565b5b60200260200101516000815181106100e4576100e3610741565b5b60200260200101518383815181106100ff576100fe610741565b5b602002602001015160018151811061011a57610119610741565b5b60200260200101516040516101309291906107ef565b60405180910390a143600183838151811061014e5761014d610741565b5b602002602001015160008151811061016957610168610741565b5b602002602001015160405161017e9190610862565b90815260200160405180910390206001018190555060018282815181106101a8576101a7610741565b5b60200260200101516000815181106101c3576101c2610741565b5b60200260200101516040516101d89190610862565b908152602001604051809103902060020160009054906101000a900460ff166102c55743600183838151811061021157610210610741565b5b602002602001015160008151811061022c5761022b610741565b5b60200260200101516040516102419190610862565b90815260200160405180910390206000018190555060018083838151811061026c5761026b610741565b5b602002602001015160008151811061028757610286610741565b5b602002602001015160405161029c9190610862565b908152602001604051809103902060020160006101000a81548160ff0219169083151502179055505b808060010191505061008c565b5050565b6001818051602081018201805184825260208301602085012081835280955050505050506000915090508060000154908060010154908060020160009054906101000a900460ff16905083565b6000604051905090565b600080fd5b600080fd5b600080fd5b6000601f19601f8301169050919050565b7f4e487b7100000000000000000000000000000000000000000000000000000000600052604160045260246000fd5b6103858261033c565b810181811067ffffffffffffffff821117156103a4576103a361034d565b5b80604052505050565b60006103b7610323565b90506103c3828261037c565b919050565b600067ffffffffffffffff8211156103e3576103e261034d565b5b602082029050602081019050919050565b600080fd5b600067ffffffffffffffff8211156104145761041361034d565b5b602082029050602081019050919050565b600080fd5b600067ffffffffffffffff8211156104455761044461034d565b5b61044e8261033c565b9050602081019050919050565b82818337600083830152505050565b600061047d6104788461042a565b6103ad565b90508281526020810184848401111561049957610498610425565b5b6104a484828561045b565b509392505050565b600082601f8301126104c1576104c0610337565b5b81356104d184826020860161046a565b91505092915050565b60006104ed6104e8846103f9565b6103ad565b905080838252602082019050602084028301858111156105105761050f6103f4565b5b835b8181101561055757803567ffffffffffffffff81111561053557610534610337565b5b80860161054289826104ac565b85526020850194505050602081019050610512565b5050509392505050565b600082601f83011261057657610575610337565b5b81356105868482602086016104da565b91505092915050565b60006105a261059d846103c8565b6103ad565b905080838252602082019050602084028301858111156105c5576105c46103f4565b5b835b8181101561060c57803567ffffffffffffffff8111156105ea576105e9610337565b5b8086016105f78982610561565b855260208501945050506020810190506105c7565b5050509392505050565b600082601f83011261062b5761062a610337565b5b813561063b84826020860161058f565b91505092915050565b60006020828403121561065a5761065961032d565b5b600082013567ffffffffffffffff81111561067857610677610332565b5b61068484828501610616565b91505092915050565b6000602082840312156106a3576106a261032d565b5b600082013567ffffffffffffffff8111156106c1576106c0610332565b5b6106cd848285016104ac565b91505092915050565b6000819050919050565b6106e9816106d6565b82525050565b60008115159050919050565b610704816106ef565b82525050565b600060608201905061071f60008301866106e0565b61072c60208301856106e0565b61073960408301846106fb565b949350505050565b7f4e487b7100000000000000000000000000000000000000000000000000000000600052603260045260246000fd5b600081519050919050565b600082825260208201905092915050565b60005b838110156107aa57808201518184015260208101905061078f565b60008484015250505050565b60006107c182610770565b6107cb818561077b565b93506107db81856020860161078c565b6107e48161033c565b840191505092915050565b6000604082019050818103600083015261080981856107b6565b9050818103602083015261081d81846107b6565b90509392505050565b600081905092915050565b600061083c82610770565b6108468185610826565b935061085681856020860161078c565b80840191505092915050565b600061086e8284610831565b91508190509291505056fea26469706673582212200ab169d2418f7ec46cde62ed06c9af0a64cdb6153f73b98fb19431c214eb3d3364736f6c634300081b0033",
  "linkReferences": {},
  "deployedLinkReferences": {}
}