{
  "_format": "hh-sol-artifact-1",
  "contractName": "DataStoreMul",
  "sourceName": "contracts/Datas.sol",
  "abi": [
    {
      "anonymous": false,
      "inputs": [
        {
          "indexed": true,
          "internalType": "string",
          "name": "examno",
          "type": "string"
        },
        {
          "indexed": false,
          "internalType": "string[]",
          "name": "data",
          "type": "string[]"
        }
      ],
      "name": "Datas",
      "type": "event"
    },
    {
      "inputs": [],
      "name": "data1",
      "outputs": [
        {
          "internalType": "string",
          "name": "",
          "type": "string"
        }
      ],
      "stateMutability": "view",
      "type": "function"
    },
    {
      "inputs": [
        {
          "internalType": "string",
          "name": "",
          "type": "string"
        }
      ],
      "name": "eventcount",
      "outputs": [
        {
          "internalType": "uint256",
          "name": "start",
          "type": "uint256"
        },
        {
          "internalType": "uint256",
          "name": "end",
          "type": "uint256"
        },
        {
          "internalType": "bool",
          "name": "firstentry",
          "type": "bool"
        }
      ],
      "stateMutability": "view",
      "type": "function"
    },
    {
      "inputs": [],
      "name": "getAllData",
      "outputs": [
        {
          "internalType": "string[][]",
          "name": "",
          "type": "string[][]"
        }
      ],
      "stateMutability": "view",
      "type": "function"
    },
    {
      "inputs": [
        {
          "internalType": "uint256",
          "name": "index",
          "type": "uint256"
        }
      ],
      "name": "getDataArray",
      "outputs": [
        {
          "internalType": "string[]",
          "name": "",
          "type": "string[]"
        }
      ],
      "stateMutability": "view",
      "type": "function"
    },
    {
      "inputs": [
        {
          "internalType": "string",
          "name": "examno",
          "type": "string"
        },
        {
          "internalType": "uint256",
          "name": "start",
          "type": "uint256"
        },
        {
          "internalType": "uint256",
          "name": "number",
          "type": "uint256"
        }
      ],
      "name": "getDataMap",
      "outputs": [
        {
          "internalType": "string[][]",
          "name": "",
          "type": "string[][]"
        }
      ],
      "stateMutability": "view",
      "type": "function"
    },
    {
      "inputs": [
        {
          "internalType": "string",
          "name": "_data1",
          "type": "string"
        }
      ],
      "name": "setData1",
      "outputs": [],
      "stateMutability": "nonpayable",
      "type": "function"
    },
    {
      "inputs": [
        {
          "internalType": "string[][]",
          "name": "newStrings",
          "type": "string[][]"
        }
      ],
      "name": "storeData",
      "outputs": [],
      "stateMutability": "nonpayable",
      "type": "function"
    },
    {
      "inputs": [
        {
          "internalType": "string[][]",
          "name": "newStrings",
          "type": "string[][]"
        }
      ],
      "name": "storeDataMap",
      "outputs": [],
      "stateMutability": "nonpayable",
      "type": "function"
    },
    {
      "inputs": [
        {
          "internalType": "string[][]",
          "name": "newStrings",
          "type": "string[][]"
        }
      ],
      "name": "storeDatas",
      "outputs": [],
      "stateMutability": "nonpayable",
      "type": "function"
    }
  ],
  "bytecode": "0x6080604052348015600f57600080fd5b506118f88061001f6000396000f3fe608060405234801561001057600080fd5b50600436106100935760003560e01c806355e0ade21161006657806355e0ade21461010a5780639ffd85c41461013a578063a1b8127414610158578063a1f7cb3614610188578063c704fc5f146101a457610093565b80630745f9d5146100985780632d10fa28146100b45780633808ee05146100d25780634f7de7f8146100ee575b600080fd5b6100b260048036038101906100ad9190610dce565b6101d6565b005b6100bc6101e9565b6040516100c9919061101a565b60405180910390f35b6100ec60048036038101906100e79190611203565b610309565b005b61010860048036038101906101039190611203565b6105f7565b005b610124600480360381019061011f9190611282565b610611565b6040516101319190611335565b60405180910390f35b610142610708565b60405161014f91906113a1565b60405180910390f35b610172600480360381019061016d91906113c3565b610796565b60405161017f919061101a565b60405180910390f35b6101a2600480360381019061019d9190611203565b610999565b005b6101be60048036038101906101b99190610dce565b610aa8565b6040516101cd9392919061145c565b60405180910390f35b80600190816101e5919061169f565b5050565b60606000805480602002602001604051908101604052809291908181526020016000905b8282101561030057838290600052602060002001805480602002602001604051908101604052809291908181526020016000905b828210156102ed578382906000526020600020018054610260906114c2565b80601f016020809104026020016040519081016040528092919081815260200182805461028c906114c2565b80156102d95780601f106102ae576101008083540402835291602001916102d9565b820191906000526020600020905b8154815290600101906020018083116102bc57829003601f168201915b505050505081526020019060010190610241565b505050508152602001906001019061020d565b50505050905090565b60005b81518110156105f357600282828151811061032a57610329611771565b5b602002602001015160038151811061034557610344611771565b5b602002602001015160405161035a91906117dc565b908152602001604051809103902082828151811061037b5761037a611771565b5b60200260200101519080600181540180825580915050600190039060005260206000200160009091909190915090805190602001906103bb929190610af5565b508181815181106103cf576103ce611771565b5b60200260200101516003815181106103ea576103e9611771565b5b60200260200101516040516103ff91906117dc565b60405180910390207f8e54e5de3e8d9415f2f81dbad29e27c5d37a5cf9cc27c4e3c9232097728a73e083838151811061043b5761043a611771565b5b60200260200101516040516104509190611335565b60405180910390a243600483838151811061046e5761046d611771565b5b602002602001015160038151811061048957610488611771565b5b602002602001015160405161049e91906117dc565b90815260200160405180910390206001018190555060048282815181106104c8576104c7611771565b5b60200260200101516003815181106104e3576104e2611771565b5b60200260200101516040516104f891906117dc565b908152602001604051809103902060020160009054906101000a900460ff166105e65743600483838151811061053157610530611771565b5b602002602001015160038151811061054c5761054b611771565b5b602002602001015160405161056191906117dc565b9081526020016040518091039020600001819055506001600483838151811061058d5761058c611771565b5b60200260200101516003815181106105a8576105a7611771565b5b60200260200101516040516105bd91906117dc565b908152602001604051809103902060020160006101000a81548160ff0219169083151502179055505b808060010191505061030c565b5050565b806000908051906020019061060d929190610b4e565b5050565b60606000828154811061062757610626611771565b5b90600052602060002001805480602002602001604051908101604052809291908181526020016000905b828210156106fd578382906000526020600020018054610670906114c2565b80601f016020809104026020016040519081016040528092919081815260200182805461069c906114c2565b80156106e95780601f106106be576101008083540402835291602001916106e9565b820191906000526020600020905b8154815290600101906020018083116106cc57829003601f168201915b505050505081526020019060010190610651565b505050509050919050565b60018054610715906114c2565b80601f0160208091040260200160405190810160405280929190818152602001828054610741906114c2565b801561078e5780601f106107635761010080835404028352916020019161078e565b820191906000526020600020905b81548152906001019060200180831161077157829003601f168201915b505050505081565b606060006002856040516107aa91906117dc565b90815260200160405180910390209050808054905083856107cb9190611822565b111561080c576040517f08c379a0000000000000000000000000000000000000000000000000000000008152600401610803906118a2565b60405180910390fd5b60008367ffffffffffffffff81111561082857610827610ca3565b5b60405190808252806020026020018201604052801561085b57816020015b60608152602001906001900390816108465790505b50905060005b8481101561098c578281876108769190611822565b8154811061088757610886611771565b5b90600052602060002001805480602002602001604051908101604052809291908181526020016000905b8282101561095d5783829060005260206000200180546108d0906114c2565b80601f01602080910402602001604051908101604052809291908181526020018280546108fc906114c2565b80156109495780601f1061091e57610100808354040283529160200191610949565b820191906000526020600020905b81548152906001019060200180831161092c57829003601f168201915b5050505050815260200190600101906108b1565b5050505082828151811061097457610973611771565b5b60200260200101819052508080600101915050610861565b5080925050509392505050565b60005b8151811015610aa45760008282815181106109ba576109b9611771565b5b60200260200101519080600181540180825580915050600190039060005260206000200160009091909190915090805190602001906109fa929190610af5565b50818181518110610a0e57610a0d611771565b5b6020026020010151600381518110610a2957610a28611771565b5b6020026020010151604051610a3e91906117dc565b60405180910390207f8e54e5de3e8d9415f2f81dbad29e27c5d37a5cf9cc27c4e3c9232097728a73e0838381518110610a7a57610a79611771565b5b6020026020010151604051610a8f9190611335565b60405180910390a2808060010191505061099c565b5050565b6004818051602081018201805184825260208301602085012081835280955050505050506000915090508060000154908060010154908060020160009054906101000a900460ff16905083565b828054828255906000526020600020908101928215610b3d579160200282015b82811115610b3c578251829081610b2c919061169f565b5091602001919060010190610b15565b5b509050610b4a9190610bae565b5090565b828054828255906000526020600020908101928215610b9d579160200282015b82811115610b9c578251829080519060200190610b8c929190610af5565b5091602001919060010190610b6e565b5b509050610baa9190610bd2565b5090565b5b80821115610bce5760008181610bc59190610bf6565b50600101610baf565b5090565b5b80821115610bf25760008181610be99190610c36565b50600101610bd3565b5090565b508054610c02906114c2565b6000825580601f10610c145750610c33565b601f016020900490600052602060002090810190610c329190610c57565b5b50565b5080546000825590600052602060002090810190610c549190610bae565b50565b5b80821115610c70576000816000905550600101610c58565b5090565b6000604051905090565b600080fd5b600080fd5b600080fd5b600080fd5b6000601f19601f8301169050919050565b7f4e487b7100000000000000000000000000000000000000000000000000000000600052604160045260246000fd5b610cdb82610c92565b810181811067ffffffffffffffff82111715610cfa57610cf9610ca3565b5b80604052505050565b6000610d0d610c74565b9050610d198282610cd2565b919050565b600067ffffffffffffffff821115610d3957610d38610ca3565b5b610d4282610c92565b9050602081019050919050565b82818337600083830152505050565b6000610d71610d6c84610d1e565b610d03565b905082815260208101848484011115610d8d57610d8c610c8d565b5b610d98848285610d4f565b509392505050565b600082601f830112610db557610db4610c88565b5b8135610dc5848260208601610d5e565b91505092915050565b600060208284031215610de457610de3610c7e565b5b600082013567ffffffffffffffff811115610e0257610e01610c83565b5b610e0e84828501610da0565b91505092915050565b600081519050919050565b600082825260208201905092915050565b6000819050602082019050919050565b600081519050919050565b600082825260208201905092915050565b6000819050602082019050919050565b600081519050919050565b600082825260208201905092915050565b60005b83811015610ea9578082015181840152602081019050610e8e565b60008484015250505050565b6000610ec082610e6f565b610eca8185610e7a565b9350610eda818560208601610e8b565b610ee381610c92565b840191505092915050565b6000610efa8383610eb5565b905092915050565b6000602082019050919050565b6000610f1a82610e43565b610f248185610e4e565b935083602082028501610f3685610e5f565b8060005b85811015610f725784840389528151610f538582610eee565b9450610f5e83610f02565b925060208a01995050600181019050610f3a565b50829750879550505050505092915050565b6000610f908383610f0f565b905092915050565b6000602082019050919050565b6000610fb082610e17565b610fba8185610e22565b935083602082028501610fcc85610e33565b8060005b858110156110085784840389528151610fe98582610f84565b9450610ff483610f98565b925060208a01995050600181019050610fd0565b50829750879550505050505092915050565b600060208201905081810360008301526110348184610fa5565b905092915050565b600067ffffffffffffffff82111561105757611056610ca3565b5b602082029050602081019050919050565b600080fd5b600067ffffffffffffffff82111561108857611087610ca3565b5b602082029050602081019050919050565b60006110ac6110a78461106d565b610d03565b905080838252602082019050602084028301858111156110cf576110ce611068565b5b835b8181101561111657803567ffffffffffffffff8111156110f4576110f3610c88565b5b8086016111018982610da0565b855260208501945050506020810190506110d1565b5050509392505050565b600082601f83011261113557611134610c88565b5b8135611145848260208601611099565b91505092915050565b600061116161115c8461103c565b610d03565b9050808382526020820190506020840283018581111561118457611183611068565b5b835b818110156111cb57803567ffffffffffffffff8111156111a9576111a8610c88565b5b8086016111b68982611120565b85526020850194505050602081019050611186565b5050509392505050565b600082601f8301126111ea576111e9610c88565b5b81356111fa84826020860161114e565b91505092915050565b60006020828403121561121957611218610c7e565b5b600082013567ffffffffffffffff81111561123757611236610c83565b5b611243848285016111d5565b91505092915050565b6000819050919050565b61125f8161124c565b811461126a57600080fd5b50565b60008135905061127c81611256565b92915050565b60006020828403121561129857611297610c7e565b5b60006112a68482850161126d565b91505092915050565b600082825260208201905092915050565b60006112cb82610e43565b6112d581856112af565b9350836020820285016112e785610e5f565b8060005b8581101561132357848403895281516113048582610eee565b945061130f83610f02565b925060208a019950506001810190506112eb565b50829750879550505050505092915050565b6000602082019050818103600083015261134f81846112c0565b905092915050565b600082825260208201905092915050565b600061137382610e6f565b61137d8185611357565b935061138d818560208601610e8b565b61139681610c92565b840191505092915050565b600060208201905081810360008301526113bb8184611368565b905092915050565b6000806000606084860312156113dc576113db610c7e565b5b600084013567ffffffffffffffff8111156113fa576113f9610c83565b5b61140686828701610da0565b93505060206114178682870161126d565b92505060406114288682870161126d565b9150509250925092565b61143b8161124c565b82525050565b60008115159050919050565b61145681611441565b82525050565b60006060820190506114716000830186611432565b61147e6020830185611432565b61148b604083018461144d565b949350505050565b7f4e487b7100000000000000000000000000000000000000000000000000000000600052602260045260246000fd5b600060028204905060018216806114da57607f821691505b6020821081036114ed576114ec611493565b5b50919050565b60008190508160005260206000209050919050565b60006020601f8301049050919050565b600082821b905092915050565b6000600883026115557fffffffffffffffffffffffffffffffffffffffffffffffffffffffffffffffff82611518565b61155f8683611518565b95508019841693508086168417925050509392505050565b6000819050919050565b600061159c6115976115928461124c565b611577565b61124c565b9050919050565b6000819050919050565b6115b683611581565b6115ca6115c2826115a3565b848454611525565b825550505050565b600090565b6115df6115d2565b6115ea8184846115ad565b505050565b5b8181101561160e576116036000826115d7565b6001810190506115f0565b5050565b601f82111561165357611624816114f3565b61162d84611508565b8101602085101561163c578190505b61165061164885611508565b8301826115ef565b50505b505050565b600082821c905092915050565b600061167660001984600802611658565b1980831691505092915050565b600061168f8383611665565b9150826002028217905092915050565b6116a882610e6f565b67ffffffffffffffff8111156116c1576116c0610ca3565b5b6116cb82546114c2565b6116d6828285611612565b600060209050601f83116001811461170957600084156116f7578287015190505b6117018582611683565b865550611769565b601f198416611717866114f3565b60005b8281101561173f5784890151825560018201915060208501945060208101905061171a565b8683101561175c5784890151611758601f891682611665565b8355505b6001600288020188555050505b505050505050565b7f4e487b7100000000000000000000000000000000000000000000000000000000600052603260045260246000fd5b600081905092915050565b60006117b682610e6f565b6117c081856117a0565b93506117d0818560208601610e8b565b80840191505092915050565b60006117e882846117ab565b915081905092915050565b7f4e487b7100000000000000000000000000000000000000000000000000000000600052601160045260246000fd5b600061182d8261124c565b91506118388361124c565b92508282019050808211156118505761184f6117f3565b5b92915050565b7f4f7574206f6620626f756e647300000000000000000000000000000000000000600082015250565b600061188c600d83611357565b915061189782611856565b602082019050919050565b600060208201905081810360008301526118bb8161187f565b905091905056fea26469706673582212206db2f32c95a8049daa49e1079fb3bc65f67da069b97ded1f82316bb67d21c1d664736f6c634300081b0033",
  "linkReferences": {},
  "deployedLinkReferences": {}
}